{
  "contractName": "SourceCodeToken",
  "abi": [
    {
      "inputs": [],
      "stateMutability": "nonpayable",
      "type": "constructor"
    },
    {
      "inputs": [
        {
          "internalType": "address",
          "name": "sender",
          "type": "address"
        },
        {
          "internalType": "uint256",
          "name": "tokenId",
          "type": "uint256"
        },
        {
          "internalType": "address",
          "name": "owner",
          "type": "address"
        }
      ],
      "name": "ERC721IncorrectOwner",
      "type": "error"
    },
    {
      "inputs": [
        {
          "internalType": "address",
          "name": "operator",
          "type": "address"
        },
        {
          "internalType": "uint256",
          "name": "tokenId",
          "type": "uint256"
        }
      ],
      "name": "ERC721InsufficientApproval",
      "type": "error"
    },
    {
      "inputs": [
        {
          "internalType": "address",
          "name": "approver",
          "type": "address"
        }
      ],
      "name": "ERC721InvalidApprover",
      "type": "error"
    },
    {
      "inputs": [
        {
          "internalType": "address",
          "name": "operator",
          "type": "address"
        }
      ],
      "name": "ERC721InvalidOperator",
      "type": "error"
    },
    {
      "inputs": [
        {
          "internalType": "address",
          "name": "owner",
          "type": "address"
        }
      ],
      "name": "ERC721InvalidOwner",
      "type": "error"
    },
    {
      "inputs": [
        {
          "internalType": "address",
          "name": "receiver",
          "type": "address"
        }
      ],
      "name": "ERC721InvalidReceiver",
      "type": "error"
    },
    {
      "inputs": [
        {
          "internalType": "address",
          "name": "sender",
          "type": "address"
        }
      ],
      "name": "ERC721InvalidSender",
      "type": "error"
    },
    {
      "inputs": [
        {
          "internalType": "uint256",
          "name": "tokenId",
          "type": "uint256"
        }
      ],
      "name": "ERC721NonexistentToken",
      "type": "error"
    },
    {
      "anonymous": false,
      "inputs": [
        {
          "indexed": true,
          "internalType": "address",
          "name": "owner",
          "type": "address"
        },
        {
          "indexed": true,
          "internalType": "address",
          "name": "approved",
          "type": "address"
        },
        {
          "indexed": true,
          "internalType": "uint256",
          "name": "tokenId",
          "type": "uint256"
        }
      ],
      "name": "Approval",
      "type": "event"
    },
    {
      "anonymous": false,
      "inputs": [
        {
          "indexed": true,
          "internalType": "address",
          "name": "owner",
          "type": "address"
        },
        {
          "indexed": true,
          "internalType": "address",
          "name": "operator",
          "type": "address"
        },
        {
          "indexed": false,
          "internalType": "bool",
          "name": "approved",
          "type": "bool"
        }
      ],
      "name": "ApprovalForAll",
      "type": "event"
    },
    {
      "anonymous": false,
      "inputs": [
        {
          "indexed": false,
          "internalType": "uint256",
          "name": "_fromTokenId",
          "type": "uint256"
        },
        {
          "indexed": false,
          "internalType": "uint256",
          "name": "_toTokenId",
          "type": "uint256"
        }
      ],
      "name": "BatchMetadataUpdate",
      "type": "event"
    },
    {
      "anonymous": false,
      "inputs": [
        {
          "indexed": false,
          "internalType": "uint256",
          "name": "_tokenId",
          "type": "uint256"
        }
      ],
      "name": "MetadataUpdate",
      "type": "event"
    },
    {
      "anonymous": false,
      "inputs": [
        {
          "indexed": true,
          "internalType": "address",
          "name": "from",
          "type": "address"
        },
        {
          "indexed": true,
          "internalType": "address",
          "name": "to",
          "type": "address"
        },
        {
          "indexed": true,
          "internalType": "uint256",
          "name": "tokenId",
          "type": "uint256"
        }
      ],
      "name": "Transfer",
      "type": "event"
    },
    {
      "inputs": [
        {
          "internalType": "address",
          "name": "to",
          "type": "address"
        },
        {
          "internalType": "uint256",
          "name": "tokenId",
          "type": "uint256"
        }
      ],
      "name": "approve",
      "outputs": [],
      "stateMutability": "nonpayable",
      "type": "function"
    },
    {
      "inputs": [
        {
          "internalType": "address",
          "name": "owner",
          "type": "address"
        }
      ],
      "name": "balanceOf",
      "outputs": [
        {
          "internalType": "uint256",
          "name": "",
          "type": "uint256"
        }
      ],
      "stateMutability": "view",
      "type": "function",
      "constant": true
    },
    {
      "inputs": [
        {
          "internalType": "uint256",
          "name": "tokenId",
          "type": "uint256"
        }
      ],
      "name": "getApproved",
      "outputs": [
        {
          "internalType": "address",
          "name": "",
          "type": "address"
        }
      ],
      "stateMutability": "view",
      "type": "function",
      "constant": true
    },
    {
      "inputs": [
        {
          "internalType": "address",
          "name": "owner",
          "type": "address"
        },
        {
          "internalType": "address",
          "name": "operator",
          "type": "address"
        }
      ],
      "name": "isApprovedForAll",
      "outputs": [
        {
          "internalType": "bool",
          "name": "",
          "type": "bool"
        }
      ],
      "stateMutability": "view",
      "type": "function",
      "constant": true
    },
    {
      "inputs": [
        {
          "internalType": "uint256",
          "name": "",
          "type": "uint256"
        }
      ],
      "name": "metadataMapping",
      "outputs": [
        {
          "internalType": "string",
          "name": "name",
          "type": "string"
        },
        {
          "internalType": "string",
          "name": "commit",
          "type": "string"
        },
        {
          "internalType": "string",
          "name": "version",
          "type": "string"
        },
        {
          "internalType": "uint256",
          "name": "timestamp",
          "type": "uint256"
        }
      ],
      "stateMutability": "view",
      "type": "function",
      "constant": true
    },
    {
      "inputs": [],
      "name": "name",
      "outputs": [
        {
          "internalType": "string",
          "name": "",
          "type": "string"
        }
      ],
      "stateMutability": "view",
      "type": "function",
      "constant": true
    },
    {
      "inputs": [
        {
          "internalType": "uint256",
          "name": "tokenId",
          "type": "uint256"
        }
      ],
      "name": "ownerOf",
      "outputs": [
        {
          "internalType": "address",
          "name": "",
          "type": "address"
        }
      ],
      "stateMutability": "view",
      "type": "function",
      "constant": true
    },
    {
      "inputs": [
        {
          "internalType": "address",
          "name": "from",
          "type": "address"
        },
        {
          "internalType": "address",
          "name": "to",
          "type": "address"
        },
        {
          "internalType": "uint256",
          "name": "tokenId",
          "type": "uint256"
        }
      ],
      "name": "safeTransferFrom",
      "outputs": [],
      "stateMutability": "nonpayable",
      "type": "function"
    },
    {
      "inputs": [
        {
          "internalType": "address",
          "name": "from",
          "type": "address"
        },
        {
          "internalType": "address",
          "name": "to",
          "type": "address"
        },
        {
          "internalType": "uint256",
          "name": "tokenId",
          "type": "uint256"
        },
        {
          "internalType": "bytes",
          "name": "data",
          "type": "bytes"
        }
      ],
      "name": "safeTransferFrom",
      "outputs": [],
      "stateMutability": "nonpayable",
      "type": "function"
    },
    {
      "inputs": [
        {
          "internalType": "address",
          "name": "operator",
          "type": "address"
        },
        {
          "internalType": "bool",
          "name": "approved",
          "type": "bool"
        }
      ],
      "name": "setApprovalForAll",
      "outputs": [],
      "stateMutability": "nonpayable",
      "type": "function"
    },
    {
      "inputs": [
        {
          "internalType": "bytes4",
          "name": "interfaceId",
          "type": "bytes4"
        }
      ],
      "name": "supportsInterface",
      "outputs": [
        {
          "internalType": "bool",
          "name": "",
          "type": "bool"
        }
      ],
      "stateMutability": "view",
      "type": "function",
      "constant": true
    },
    {
      "inputs": [],
      "name": "symbol",
      "outputs": [
        {
          "internalType": "string",
          "name": "",
          "type": "string"
        }
      ],
      "stateMutability": "view",
      "type": "function",
      "constant": true
    },
    {
      "inputs": [
        {
          "internalType": "uint256",
          "name": "tokenId",
          "type": "uint256"
        }
      ],
      "name": "tokenURI",
      "outputs": [
        {
          "internalType": "string",
          "name": "",
          "type": "string"
        }
      ],
      "stateMutability": "view",
      "type": "function",
      "constant": true
    },
    {
      "inputs": [
        {
          "internalType": "address",
          "name": "from",
          "type": "address"
        },
        {
          "internalType": "address",
          "name": "to",
          "type": "address"
        },
        {
          "internalType": "uint256",
          "name": "tokenId",
          "type": "uint256"
        }
      ],
      "name": "transferFrom",
      "outputs": [],
      "stateMutability": "nonpayable",
      "type": "function"
    },
    {
      "inputs": [
        {
          "internalType": "string",
          "name": "name",
          "type": "string"
        },
        {
          "internalType": "string",
          "name": "commit",
          "type": "string"
        },
        {
          "internalType": "string",
          "name": "version",
          "type": "string"
        },
        {
          "internalType": "string[]",
          "name": "fileHashes",
          "type": "string[]"
        },
        {
          "internalType": "string",
          "name": "tokenURI",
          "type": "string"
        }
      ],
      "name": "mintSourceCodeToken",
      "outputs": [
        {
          "internalType": "uint256",
          "name": "",
          "type": "uint256"
        }
      ],
      "stateMutability": "nonpayable",
      "type": "function"
    },
    {
      "inputs": [
        {
          "internalType": "uint256",
          "name": "tokenId",
          "type": "uint256"
        }
      ],
      "name": "getMetadata",
      "outputs": [
        {
          "components": [
            {
              "internalType": "string",
              "name": "name",
              "type": "string"
            },
            {
              "internalType": "string",
              "name": "commit",
              "type": "string"
            },
            {
              "internalType": "string",
              "name": "version",
              "type": "string"
            },
            {
              "internalType": "string[]",
              "name": "fileHashes",
              "type": "string[]"
            },
            {
              "internalType": "uint256",
              "name": "timestamp",
              "type": "uint256"
            }
          ],
          "internalType": "struct SourceCodeToken.SourceCodeMetadata",
          "name": "",
          "type": "tuple"
        }
      ],
      "stateMutability": "view",
      "type": "function",
      "constant": true
    }
  ],
  "bytecode": "0x608060405234801561001057600080fd5b506040518060400160405280600f81526020017f536f75726365436f6465546f6b656e00000000000000000000000000000000008152506040518060400160405280600381526020017f5343540000000000000000000000000000000000000000000000000000000000815250816000908161008c9190610172565b5060016100998282610172565b505050610237565b7f4e487b7100000000000000000000000000000000000000000000000000000000600052604160045260246000fd5b6002810460018216806100e457607f821691505b60208210810361011d577f4e487b7100000000000000000000000000000000000000000000000000000000600052602260045260246000fd5b50919050565b601f82111561016d578060005260206000206020601f8501048101602085101561014a5750805b6020601f850104820191505b8181101561016a5760008155600101610156565b50505b505050565b815167ffffffffffffffff81111561018c5761018c6100a1565b6101a08161019a84546100d0565b84610123565b6020601f8211600181146101d857600083156101bc5750848201515b60088402600290810a600019041982169085021785555061016a565b600084815260208120601f198516915b8281101561020857878501518255602094850194600190920191016101e8565b50848210156102285783870151601f861660080260020a60001904191681555b50505050600202600101905550565b611dea806102466000396000f3fe608060405234801561001057600080fd5b506004361061011d576000357c0100000000000000000000000000000000000000000000000000000000900480636352211e116100b4578063a574cea411610083578063a574cea41461024a578063b88d4fde1461026a578063c87b56dd1461027d578063e985e9c51461029057600080fd5b80636352211e1461020957806370a082311461021c57806395d89b411461022f578063a22cb4651461023757600080fd5b806323b872dd116100f057806323b872dd1461019f5780632c978286146101b257806339e4456f146101d557806342842e0e146101f657600080fd5b806301ffc9a71461012257806306fdde031461014a578063081812fc1461015f578063095ea7b31461018a575b600080fd5b6101356101303660046115e6565b6102a3565b60405190151581526020015b60405180910390f35b6101526102e7565b6040516101419190611653565b61017261016d366004611666565b610379565b604051600160a060020a039091168152602001610141565b61019d61019836600461169b565b6103a2565b005b61019d6101ad3660046116c5565b6103b1565b6101c56101c0366004611666565b61045d565b6040516101419493929190611702565b6101e86101e33660046118d1565b61061d565b604051908152602001610141565b61019d6102043660046116c5565b6106ee565b610172610217366004611666565b61070e565b6101e861022a3660046119bd565b610719565b61015261077a565b61019d6102453660046119d8565b610789565b61025d610258366004611666565b610794565b6040516101419190611a14565b61019d610278366004611ae3565b610a7e565b61015261028b366004611666565b610a95565b61013561029e366004611b5f565b610ba6565b6000600160e060020a031982167f490649060000000000000000000000000000000000000000000000000000000014806102e157506102e182610bd4565b92915050565b6060600080546102f690611b92565b80601f016020809104026020016040519081016040528092919081815260200182805461032290611b92565b801561036f5780601f106103445761010080835404028352916020019161036f565b820191906000526020600020905b81548152906001019060200180831161035257829003601f168201915b5050505050905090565b600061038482610c6f565b50600082815260046020526040902054600160a060020a03166102e1565b6103ad828233610cc1565b5050565b600160a060020a0382166103e35760405160e160020a6332505749028152600060048201526024015b60405180910390fd5b60006103f0838333610cce565b905083600160a060020a031681600160a060020a031614610457576040517f64283d7b000000000000000000000000000000000000000000000000000000008152600160a060020a03808616600483015260248201849052821660448201526064016103da565b50505050565b60076020526000908152604090208054819061047890611b92565b80601f01602080910402602001604051908101604052809291908181526020018280546104a490611b92565b80156104f15780601f106104c6576101008083540402835291602001916104f1565b820191906000526020600020905b8154815290600101906020018083116104d457829003601f168201915b50505050509080600101805461050690611b92565b80601f016020809104026020016040519081016040528092919081815260200182805461053290611b92565b801561057f5780601f106105545761010080835404028352916020019161057f565b820191906000526020600020905b81548152906001019060200180831161056257829003601f168201915b50505050509080600201805461059490611b92565b80601f01602080910402602001604051908101604052809291908181526020018280546105c090611b92565b801561060d5780601f106105e25761010080835404028352916020019161060d565b820191906000526020600020905b8154815290600101906020018083116105f057829003601f168201915b5050505050908060040154905084565b6008546040805160a08101825287815260208082018890528183018790526060820186905242608083015260008481526007909152918220815192939281906106669082611c2c565b506020820151600182019061067b9082611c2c565b50604082015160028201906106909082611c2c565b50606082015180516106ac91600384019160209091019061150b565b50608082015181600401559050506106c43382610dd4565b6106ce8184610dee565b600880549060006106de83611cf1565b9091555090979650505050505050565b61070983838360405180602001604052806000815250610a7e565b505050565b60006102e182610c6f565b6000600160a060020a03821661075e576040517f89c62b64000000000000000000000000000000000000000000000000000000008152600060048201526024016103da565b50600160a060020a031660009081526003602052604090205490565b6060600180546102f690611b92565b6103ad338383610e3e565b6107c66040518060a0016040528060608152602001606081526020016060815260200160608152602001600081525090565b60008281526007602052604090819020815160a081019092528054829082906107ee90611b92565b80601f016020809104026020016040519081016040528092919081815260200182805461081a90611b92565b80156108675780601f1061083c57610100808354040283529160200191610867565b820191906000526020600020905b81548152906001019060200180831161084a57829003601f168201915b5050505050815260200160018201805461088090611b92565b80601f01602080910402602001604051908101604052809291908181526020018280546108ac90611b92565b80156108f95780601f106108ce576101008083540402835291602001916108f9565b820191906000526020600020905b8154815290600101906020018083116108dc57829003601f168201915b5050505050815260200160028201805461091290611b92565b80601f016020809104026020016040519081016040528092919081815260200182805461093e90611b92565b801561098b5780601f106109605761010080835404028352916020019161098b565b820191906000526020600020905b81548152906001019060200180831161096e57829003601f168201915b5050505050815260200160038201805480602002602001604051908101604052809291908181526020016000905b82821015610a655783829060005260206000200180546109d890611b92565b80601f0160208091040260200160405190810160405280929190818152602001828054610a0490611b92565b8015610a515780601f10610a2657610100808354040283529160200191610a51565b820191906000526020600020905b815481529060010190602001808311610a3457829003601f168201915b5050505050815260200190600101906109b9565b5050505081526020016004820154815250509050919050565b610a898484846103b1565b61045784848484610ef6565b6060610aa082610c6f565b5060008281526006602052604081208054610aba90611b92565b80601f0160208091040260200160405190810160405280929190818152602001828054610ae690611b92565b8015610b335780601f10610b0857610100808354040283529160200191610b33565b820191906000526020600020905b815481529060010190602001808311610b1657829003601f168201915b505050505090506000610b5160408051602081019091526000815290565b90508051600003610b63575092915050565b815115610b95578082604051602001610b7d929190611d31565b60405160208183030381529060405292505050919050565b610b9e84611057565b949350505050565b600160a060020a03918216600090815260056020908152604080832093909416825291909152205460ff1690565b6000600160e060020a031982167f80ac58cd000000000000000000000000000000000000000000000000000000001480610c375750600160e060020a031982167f5b5e139f00000000000000000000000000000000000000000000000000000000145b806102e157507f01ffc9a700000000000000000000000000000000000000000000000000000000600160e060020a03198316146102e1565b600081815260026020526040812054600160a060020a0316806102e1576040517f7e273289000000000000000000000000000000000000000000000000000000008152600481018490526024016103da565b61070983838360016110cc565b600082815260026020526040812054600160a060020a0390811690831615610cfb57610cfb8184866111f8565b600160a060020a03811615610d3957610d186000856000806110cc565b600160a060020a038116600090815260036020526040902080546000190190555b600160a060020a03851615610d6857600160a060020a0385166000908152600360205260409020805460010190555b600084815260026020526040808220805473ffffffffffffffffffffffffffffffffffffffff1916600160a060020a0389811691821790925591518793918516917fddf252ad1be2c89b69c2b068fc378daa952ba7f163c4a11628f55a4df523b3ef91a4949350505050565b6103ad82826040518060200160405280600081525061128e565b6000828152600660205260409020610e068282611c2c565b506040518281527ff8e1a15aba9398e019f0b49df1a4fde98ee17ae345cb5f6b5e2c27f5033e8ce79060200160405180910390a15050565b600160a060020a038216610e89576040517f5b08ba18000000000000000000000000000000000000000000000000000000008152600160a060020a03831660048201526024016103da565b600160a060020a03838116600081815260056020908152604080832094871680845294825291829020805460ff191686151590811790915591519182527f17307eab39ab6107e8899845ad3d59bd9653f200f220920489ca2b5937696c31910160405180910390a3505050565b600160a060020a0383163b15610457576040517f150b7a02000000000000000000000000000000000000000000000000000000008152600160a060020a0384169063150b7a0290610f51903390889087908790600401611d60565b6020604051808303816000875af1925050508015610f8c575060408051601f3d908101601f19168201909252610f8991810190611d97565b60015b610ff8573d808015610fba576040519150601f19603f3d011682016040523d82523d6000602084013e610fbf565b606091505b508051600003610ff05760405160e160020a6332505749028152600160a060020a03851660048201526024016103da565b805181602001fd5b600160e060020a031981167f150b7a0200000000000000000000000000000000000000000000000000000000146110505760405160e160020a6332505749028152600160a060020a03851660048201526024016103da565b5050505050565b606061106282610c6f565b50600061107a60408051602081019091526000815290565b9050600081511161109a57604051806020016040528060008152506110c5565b806110a4846112a5565b6040516020016110b5929190611d31565b6040516020818303038152906040525b9392505050565b80806110e05750600160a060020a03821615155b156111bb5760006110f084610c6f565b9050600160a060020a0383161580159061111c575082600160a060020a031681600160a060020a031614155b801561112f575061112d8184610ba6565b155b15611171576040517fa9fbf51f000000000000000000000000000000000000000000000000000000008152600160a060020a03841660048201526024016103da565b81156111b9578385600160a060020a031682600160a060020a03167f8c5be1e5ebec7d5bd14f71427d1e84f3dd0314c0f7b2291e5b200ac8c7c3b92560405160405180910390a45b505b50506000908152600460205260409020805473ffffffffffffffffffffffffffffffffffffffff1916600160a060020a0392909216919091179055565b611203838383611345565b61070957600160a060020a03831661124a576040517f7e273289000000000000000000000000000000000000000000000000000000008152600481018290526024016103da565b6040517f177e802f000000000000000000000000000000000000000000000000000000008152600160a060020a0383166004820152602481018290526044016103da565b61129883836113a8565b6107096000848484610ef6565b606060006112b283611429565b600101905060008167ffffffffffffffff8111156112d2576112d261174d565b6040519080825280601f01601f1916602001820160405280156112fc576020820181803683370190505b5090508181016020015b600019017f3031323334353637383961626364656600000000000000000000000000000000600a86061a8153600a850494508461130657509392505050565b6000600160a060020a03831615801590610b9e575082600160a060020a031684600160a060020a0316148061137f575061137f8484610ba6565b80610b9e575050600090815260046020526040902054600160a060020a03908116911614919050565b600160a060020a0382166113d55760405160e160020a6332505749028152600060048201526024016103da565b60006113e383836000610cce565b9050600160a060020a03811615610709576040517f73c6ac6e000000000000000000000000000000000000000000000000000000008152600060048201526024016103da565b6000807a184f03e93ff9f4daa797ed6e38ed64bf6a1f0100000000000000008310611472577a184f03e93ff9f4daa797ed6e38ed64bf6a1f010000000000000000830492506040015b6d04ee2d6d415b85acef8100000000831061149e576d04ee2d6d415b85acef8100000000830492506020015b662386f26fc1000083106114bc57662386f26fc10000830492506010015b6305f5e10083106114d4576305f5e100830492506008015b61271083106114e857612710830492506004015b606483106114fa576064830492506002015b600a83106102e15760010192915050565b828054828255906000526020600020908101928215611551579160200282015b8281111561155157825182906115419082611c2c565b509160200191906001019061152b565b5061155d929150611561565b5090565b8082111561155d576000611575828261157e565b50600101611561565b50805461158a90611b92565b6000825580601f1061159a575050565b601f0160209004906000526020600020908101906115b891906115bb565b50565b5b8082111561155d57600081556001016115bc565b600160e060020a0319811681146115b857600080fd5b6000602082840312156115f857600080fd5b81356110c5816115d0565b60005b8381101561161e578181015183820152602001611606565b50506000910152565b6000815180845261163f816020860160208601611603565b601f01601f19169290920160200192915050565b6020815260006110c56020830184611627565b60006020828403121561167857600080fd5b5035919050565b8035600160a060020a038116811461169657600080fd5b919050565b600080604083850312156116ae57600080fd5b6116b78361167f565b946020939093013593505050565b6000806000606084860312156116da57600080fd5b6116e38461167f565b92506116f16020850161167f565b929592945050506040919091013590565b6080815260006117156080830187611627565b82810360208401526117278187611627565b9050828103604084015261173b8186611627565b91505082606083015295945050505050565b7f4e487b7100000000000000000000000000000000000000000000000000000000600052604160045260246000fd5b604051601f8201601f1916810167ffffffffffffffff811182821017156117a5576117a561174d565b604052919050565b60008067ffffffffffffffff8411156117c8576117c861174d565b50601f8301601f19166020016117dd8161177c565b9150508281528383830111156117f257600080fd5b828260208301376000602084830101529392505050565b600082601f83011261181a57600080fd5b6110c5838335602085016117ad565b600082601f83011261183a57600080fd5b813567ffffffffffffffff8111156118545761185461174d565b602081026118646020820161177c565b9182526020818501810192908101908684111561188057600080fd5b6020860192505b838310156118c757823567ffffffffffffffff8111156118a657600080fd5b6118b5886020838a0101611809565b83525060209283019290910190611887565b9695505050505050565b600080600080600060a086880312156118e957600080fd5b853567ffffffffffffffff81111561190057600080fd5b61190c88828901611809565b955050602086013567ffffffffffffffff81111561192957600080fd5b61193588828901611809565b945050604086013567ffffffffffffffff81111561195257600080fd5b61195e88828901611809565b935050606086013567ffffffffffffffff81111561197b57600080fd5b61198788828901611829565b925050608086013567ffffffffffffffff8111156119a457600080fd5b6119b088828901611809565b9150509295509295909350565b6000602082840312156119cf57600080fd5b6110c58261167f565b600080604083850312156119eb57600080fd5b6119f48361167f565b915060208301358015158114611a0957600080fd5b809150509250929050565b602081526000825160a06020840152611a3060c0840182611627565b90506020840151601f19848303016040850152611a4d8282611627565b9150506040840151601f19848303016060850152611a6b8282611627565b6060860151858203601f19016080870152805180835291935060209081019250808401919080820285010160005b82811015611aca57601f19868303018452611ab5828651611627565b60209586019594909401939150600101611a99565b50608088015160a0880152809550505050505092915050565b60008060008060808587031215611af957600080fd5b611b028561167f565b9350611b106020860161167f565b925060408501359150606085013567ffffffffffffffff811115611b3357600080fd5b8501601f81018713611b4457600080fd5b611b53878235602084016117ad565b91505092959194509250565b60008060408385031215611b7257600080fd5b611b7b8361167f565b9150611b896020840161167f565b90509250929050565b600281046001821680611ba657607f821691505b602082108103611bdf577f4e487b7100000000000000000000000000000000000000000000000000000000600052602260045260246000fd5b50919050565b601f821115610709578060005260206000206020601f85010481016020851015611c0c5750805b6020601f850104820191505b818110156110505760008155600101611c18565b815167ffffffffffffffff811115611c4657611c4661174d565b611c5a81611c548454611b92565b84611be5565b6020601f821160018114611c925760008315611c765750848201515b60088402600290810a6000190419821690850217855550611050565b600084815260208120601f198516915b82811015611cc25787850151825560209485019460019092019101611ca2565b5084821015611ce25783870151601f861660080260020a60001904191681555b50505050600202600101905550565b600060018201611d2a577f4e487b7100000000000000000000000000000000000000000000000000000000600052601160045260246000fd5b5060010190565b60008351611d43818460208801611603565b835190830190611d57818360208801611603565b01949350505050565b600160a060020a0385168152600160a060020a03841660208201528260408201526080606082015260006118c76080830184611627565b600060208284031215611da957600080fd5b81516110c5816115d056fea2646970667358221220faf6bd8d6d6a6919c1531da6640966dc0892d267d9412a3be6cb63254c5f479b64736f6c634300081b0033",
  "immutableReferences": {},
  "source": "// SPDX-License-Identifier: UNLICENSED\r\n\r\npragma solidity ^0.8.0;\r\n\r\nimport \"@openzeppelin/contracts/token/ERC721/extensions/ERC721URIStorage.sol\";\r\n\r\ncontract SourceCodeToken is ERC721URIStorage {\r\n    struct SourceCodeMetadata {\r\n        string name;\r\n        string commit;\r\n        string version;\r\n        string[] fileHashes;\r\n        uint256 timestamp;\r\n    }\r\n\r\n    // Mapping from token ID to SourceCodeMetadata\r\n    mapping(uint256 => SourceCodeMetadata) public metadataMapping;\r\n\r\n    // Variable to keep track of the next token ID\r\n    uint256 private _nextTokenId;\r\n\r\n    constructor() ERC721(\"SourceCodeToken\", \"SCT\") {}\r\n\r\n    // Mint a new NFT representing a source code\r\n    function mintSourceCodeToken(\r\n        string memory name,\r\n        string memory commit,\r\n        string memory version,\r\n        string[] memory fileHashes,\r\n        string memory tokenURI\r\n    ) public returns (uint256) {\r\n        // Assign the next token ID\r\n        uint256 newTokenId = _nextTokenId;\r\n\r\n        // Store metadata for the token\r\n        metadataMapping[newTokenId] = SourceCodeMetadata({\r\n            name: name,\r\n            commit: commit,\r\n            version: version,\r\n            fileHashes: fileHashes,\r\n            timestamp: block.timestamp\r\n        });\r\n\r\n        // Mint the NFT to the caller\r\n        _safeMint(msg.sender, newTokenId);\r\n\r\n        // Set the token URI (typically used for metadata like image, description, etc.)\r\n        _setTokenURI(newTokenId, tokenURI);\r\n\r\n        // Increment the next token ID for future mints\r\n        _nextTokenId++;\r\n\r\n        return newTokenId;\r\n    }\r\n\r\n    // Retrieve metadata for a specific token ID\r\n    function getMetadata(uint256 tokenId)\r\n        public\r\n        view\r\n        returns (SourceCodeMetadata memory)\r\n    {\r\n        return metadataMapping[tokenId];\r\n    }\r\n}\r\n",
  "sourcePath": "C:\\Users\\SSAFY\\develop\\ddalkak\\server\\contract-service\\contracts\\contracts\\SourceCodeNFT.sol",
  "compiler": {
    "name": "solc",
    "version": "0.8.27+commit.40a35a09.Emscripten.clang"
  },
  "schemaVersion": "3.4.16",
  "updatedAt": "2024-09-25T08:21:51.821Z",
  "networkType": "ethereum",
  "devdoc": {
    "errors": {
      "ERC721IncorrectOwner(address,uint256,address)": [
        {
          "details": "Indicates an error related to the ownership over a particular token. Used in transfers.",
          "params": {
            "owner": "Address of the current owner of a token.",
            "sender": "Address whose tokens are being transferred.",
            "tokenId": "Identifier number of a token."
          }
        }
      ],
      "ERC721InsufficientApproval(address,uint256)": [
        {
          "details": "Indicates a failure with the `operator`s approval. Used in transfers.",
          "params": {
            "operator": "Address that may be allowed to operate on tokens without being their owner.",
            "tokenId": "Identifier number of a token."
          }
        }
      ],
      "ERC721InvalidApprover(address)": [
        {
          "details": "Indicates a failure with the `approver` of a token to be approved. Used in approvals.",
          "params": {
            "approver": "Address initiating an approval operation."
          }
        }
      ],
      "ERC721InvalidOperator(address)": [
        {
          "details": "Indicates a failure with the `operator` to be approved. Used in approvals.",
          "params": {
            "operator": "Address that may be allowed to operate on tokens without being their owner."
          }
        }
      ],
      "ERC721InvalidOwner(address)": [
        {
          "details": "Indicates that an address can't be an owner. For example, `address(0)` is a forbidden owner in EIP-20. Used in balance queries.",
          "params": {
            "owner": "Address of the current owner of a token."
          }
        }
      ],
      "ERC721InvalidReceiver(address)": [
        {
          "details": "Indicates a failure with the token `receiver`. Used in transfers.",
          "params": {
            "receiver": "Address to which tokens are being transferred."
          }
        }
      ],
      "ERC721InvalidSender(address)": [
        {
          "details": "Indicates a failure with the token `sender`. Used in transfers.",
          "params": {
            "sender": "Address whose tokens are being transferred."
          }
        }
      ],
      "ERC721NonexistentToken(uint256)": [
        {
          "details": "Indicates a `tokenId` whose `owner` is the zero address.",
          "params": {
            "tokenId": "Identifier number of a token."
          }
        }
      ]
    },
    "events": {
      "Approval(address,address,uint256)": {
        "details": "Emitted when `owner` enables `approved` to manage the `tokenId` token."
      },
      "ApprovalForAll(address,address,bool)": {
        "details": "Emitted when `owner` enables or disables (`approved`) `operator` to manage all of its assets."
      },
      "BatchMetadataUpdate(uint256,uint256)": {
        "details": "This event emits when the metadata of a range of tokens is changed. So that the third-party platforms such as NFT market could timely update the images and related attributes of the NFTs."
      },
      "MetadataUpdate(uint256)": {
        "details": "This event emits when the metadata of a token is changed. So that the third-party platforms such as NFT market could timely update the images and related attributes of the NFT."
      },
      "Transfer(address,address,uint256)": {
        "details": "Emitted when `tokenId` token is transferred from `from` to `to`."
      }
    },
    "kind": "dev",
    "methods": {
      "approve(address,uint256)": {
        "details": "See {IERC721-approve}."
      },
      "balanceOf(address)": {
        "details": "See {IERC721-balanceOf}."
      },
      "getApproved(uint256)": {
        "details": "See {IERC721-getApproved}."
      },
      "isApprovedForAll(address,address)": {
        "details": "See {IERC721-isApprovedForAll}."
      },
      "name()": {
        "details": "See {IERC721Metadata-name}."
      },
      "ownerOf(uint256)": {
        "details": "See {IERC721-ownerOf}."
      },
      "safeTransferFrom(address,address,uint256)": {
        "details": "See {IERC721-safeTransferFrom}."
      },
      "safeTransferFrom(address,address,uint256,bytes)": {
        "details": "See {IERC721-safeTransferFrom}."
      },
      "setApprovalForAll(address,bool)": {
        "details": "See {IERC721-setApprovalForAll}."
      },
      "supportsInterface(bytes4)": {
        "details": "See {IERC165-supportsInterface}"
      },
      "symbol()": {
        "details": "See {IERC721Metadata-symbol}."
      },
      "tokenURI(uint256)": {
        "details": "See {IERC721Metadata-tokenURI}."
      },
      "transferFrom(address,address,uint256)": {
        "details": "See {IERC721-transferFrom}."
      }
    },
    "version": 1
  },
  "userdoc": {
    "kind": "user",
    "methods": {},
    "version": 1
  }
}